:020000040000FA
:04000000CCEF0EF043
:10060000003F065B4F666D7D077F6F777C395E79B3
:100610007100000E1C6E3C0E1B6E000E126E000E62
:10062000116E000E146E000E136E000E936E000E0F
:10063000816EDCEC0EF00F0E4AEC0DF05DEC0EF06E
:1006400089EC0DF0020E0D6E060E31EC0EF0560E1A
:1006500088EC0EF06F0E88EC0EF06F0E88EC0EF04A
:10066000200E88EC0EF04C0E88EC0EF0410E88EC5B
:100670000EF0380E88EC0EF0300E88EC0EF0370ECF
:1006800088EC0EF0300E88EC0EF0C00E4AEC0DF047
:10069000450E88EC0EF06D0E88EC0EF0620E88ECC4
:1006A0000EF0610E88EC0EF0720E88EC0EF0710EFA
:1006B00088EC0EF0750E88EC0EF0650E88EC0EF0EE
:1006C000490E88EC0EF06D0E88EC0EF0650E88EC8D
:1006D0000EF0640E88EC0EF0690E88EC0EF0610EE0
:1006E00088EC0EF0740E88EC0EF06F0E88EC0EF0B5
:1006F0008168000E166E000E156E154A162A1650E9
:1007000009E1FA0E155CD8A088EF03F08AEF03F038
:100710007DEF03F01BB08FEF03F091EF03F093EF49
:1007200003F0000E816E134A142A145009E1FA0EE8
:10073000135CD8A09EEF03F0A0EF03F0CFEF03F01F
:10074000000E146E000E136E1B06D8A01C06030EBE
:100750000D6E1BC008F01CC009F0000E0B6E0A0ED7
:100760000A6EFFEC0DF0085031EC0EF0020E0D6E2B
:10077000000E046E0A0E036E1BC001F01CC002F0D6
:10078000C5EC0DF001C008F002C009F0000E0B6EC0
:100790000A0E0A6EFFEC0DF0085031EC0EF01B5003
:1007A0001C10D8A4D6EF03F0D8EF03F0E4EF04F068
:1007B000010E4AEC0DF0000E816E000E176E000E59
:1007C000186E000E196E000E1A6E17C001F018C0D8
:1007D00002F019C003F01AC004F0000E056E000EFE
:1007E000066EE10E076E430E086EC8EC0CF0D8A042
:1007F000FCEF03F0FEEF03F000EF04F087EF04F0EE
:10080000560E88EC0EF06F0E88EC0EF06F0E88EC32
:100810000EF0200E88EC0EF04C0E88EC0EF0410E1F
:1008200088EC0EF0380E88EC0EF0300E88EC0EF0EE
:10083000370E88EC0EF0300E88EC0EF0C00E4AEC4D
:100840000DF0440E88EC0EF0650E88EC0EF0630E91
:1008500088EC0EF06F0E88EC0EF06C0E88EC0EF04B
:100860006F0E88EC0EF0750E88EC0EF0200E88EC02
:100870000EF0200E88EC0EF0200E88EC0EF0200E0C
:1008800088EC0EF0200E88EC0EF0200E88EC0EF0B6
:10089000200E88EC0EF0200E88EC0EF0200E88EC76
:1008A0000EF0200E88EC0EF017C001F018C002F018
:1008B00019C003F01AC004F0000E056E000E066E9B
:1008C000800E076E3F0E086EB5EC06F001C017F003
:1008D00002C018F003C019F004C01AF017C001F0EC
:1008E00018C002F019C003F01AC004F0000E056E23
:1008F000000E066EE10E076E430E086EC8EC0CF09B
:10090000D8A085EF04F087EF04F000EF04F0000EAC
:100910001C6E3C0E1B6E020E0D6E060E31EC0EF0C0
:10092000010E4AEC0DF0560E88EC0EF06F0E88ECBE
:100930000EF06F0E88EC0EF0200E88EC0EF04C0ED0
:1009400088EC0EF0410E88EC0EF0380E88EC0EF0BC
:10095000300E88EC0EF0370E88EC0EF0300E88EC7E
:100960000EF0C00E4AEC0DF0450E88EC0EF06D0E48
:1009700088EC0EF0620E88EC0EF0610E88EC0EF042
:10098000720E88EC0EF0710E88EC0EF0750E88EC8D
:100990000EF0650E88EC0EF0490E88EC0EF06E0E2F
:1009A00088EC0EF0690E88EC0EF0630E88EC0EF009
:1009B000690E88EC0EF0610E88EC0EF0640E88EC87
:1009C0000EF06F0E88EC0EF063EC0BF0D7EC0EF02F
:1009D0001D50011809E11E500218D8B4F2EF04F0BE
:1009E000F4EF04F0AFEF06F0D7EC0EF001C01DF00D
:1009F00002C01EF01DA4FFEF04F001EF05F05BEF55
:100A000005F0010E4AEC0DF0440E88EC0EF0650E78
:100A100088EC0EF0730E88EC0EF0740E88EC0EF07D
:100A2000690E88EC0EF06E0E88EC0EF06F0E88ECFE
:100A30000EF03A0E88EC0EF0200E88EC0EF0410E0F
:100A400088EC0EF0650E88EC0EF0720E88EC0EF05D
:100A50006F0E88EC0EF02E0E88EC0EF0C00E4AECF5
:100A60000DF0490E88EC0EF06E0E88EC0EF0740E50
:100A700088EC0EF02E0E88EC0EF0200E88EC0EF0B6
:100A8000460E88EC0EF0720E88EC0EF0610E88ECCB
:100A90000EF06E0E88EC0EF06B0E88EC0EF0660E0B
:100AA00088EC0EF0750E88EC0EF0720E88EC0EF0ED
:100AB000740E88EC0EF01DA660EF05F062EF05F0F5
:100AC000B6EF05F0010E4AEC0DF0560E88EC0EF074
:100AD0006F0E88EC0EF06F0E88EC0EF0200E88EC96
:100AE0000EF04C0E88EC0EF0410E88EC0EF0380E35
:100AF00088EC0EF0300E88EC0EF0370E88EC0EF01D
:100B0000300E88EC0EF0C00E4AEC0DF0450E88EC6D
:100B10000EF06D0E88EC0EF0620E88EC0EF0610E99
:100B200088EC0EF0720E88EC0EF0710E88EC0EF070
:100B3000750E88EC0EF0650E88EC0EF0490E88EC10
:100B40000EF06E0E88EC0EF0690E88EC0EF0630E5F
:100B500088EC0EF0690E88EC0EF0610E88EC0EF059
:100B6000640E88EC0EF06F0E88EC0EF01DA8BBEF43
:100B700005F0BDEF05F00EEF06F0010E4AEC0DF0AA
:100B8000410E88EC0EF0650E88EC0EF0720E88ECCB
:100B90000EF06F0E88EC0EF06E0E88EC0EF0610E0B
:100BA00088EC0EF0760E88EC0EF0650E88EC0EF0F8
:100BB0003A0E88EC0EF0C00E4AEC0DF0420E88ECB6
:100BC0000EF06F0E88EC0EF0650E88EC0EF0690EDC
:100BD00088EC0EF06E0E88EC0EF0670E88EC0EF0CE
:100BE000200E88EC0EF0370E88EC0EF0370E88ECF5
:100BF0000EF0370E88EC0EF02D0E88EC0EF0330E52
:100C000088EC0EF0300E88EC0EF0300E88EC0EF012
:100C1000450E88EC0EF0520E88EC0EF01DAA13EF74
:100C200006F015EF06F04BEF06F0010E4AEC0DF062
:100C30004D0E88EC0EF0610E88EC0EF0740E88EC10
:100C40000EF0720E88EC0EF0690E88EC0EF0630E5A
:100C500088EC0EF0750E88EC0EF06C0E88EC0EF041
:100C6000610E88EC0EF03A0E88EC0EF0C00E4AECE5
:100C70000DF0500E88EC0EF0540E88EC0EF02D0E98
:100C800088EC0EF04D0E88EC0EF0550E88EC0EF050
:100C9000410E88EC0EF01DAC50EF06F052EF06F05E
:100CA000AFEF06F0010E4AEC0DF0540E88EC0EF09A
:100CB000650E88EC0EF06D0E88EC0EF0700E88EC70
:100CC0000EF06F0E88EC0EF0200E88EC0EF0650E24
:100CD00088EC0EF0730E88EC0EF0740E88EC0EF0BB
:100CE000690E88EC0EF06D0E88EC0EF0610E88EC4B
:100CF0000EF0640E88EC0EF06F0E88EC0EF0C00E55
:100D00004AEC0DF0640E88EC0EF0650E88EC0EF0E7
:100D1000200E88EC0EF0760E88EC0EF06F0E88EC4C
:100D20000EF06F0E88EC0EF03A0E88EC0EF0310EDD
:100D300088EC0EF0310E88EC0EF0680E88EC0EF0A8
:100D4000330E88EC0EF0350E88EC0EF06D0E88EC4C
:100D50000EF0690E88EC0EF06E0E88EC0EF020ECB2
:100D60000CF078EF03F000EF00F00450800B0D6EF4
:100D7000045004240F6E03AEC0EF06F0C2EF06F07D
:100D8000C3EF06F00F800F50D8B4C9EF06F0CBEFD9
:100D900006F0E0EF06F00F28D8A4D1EF06F0D3EF6D
:100DA00006F0DBEF06F0000E016E000E026E000E84
:100DB000036E000E046E038E000E046EE8EF06F064
:100DC000000E016E000E026E000E036E000E046E29
:100DD0000850800B0E6E0D500E18D8B4F2EF06F0CE
:100DE000F4EF06F0F5EF06F00D8C085008240E6EB7
:100DF00007AEFDEF06F0FFEF06F000EF07F00E8004
:100E00000E50D8B406EF07F008EF07F01DEF07F01B
:100E10000E28D8A40EEF07F010EF07F018EF07F038
:100E2000000E056E000E066E000E076E000E086EB8
:100E3000078E000E086E25EF07F0000E056E000EFF
:100E4000066E000E076E000E086E0F500E5CD8B0D6
:100E50002CEF07F02EEF07F055EF07F00DAC33EF56
:100E600007F035EF07F037EF07F0800E0D1A0FC0CF
:100E700010F00EC00FF010C00EF001C010F005C051
:100E800001F010C005F002C010F006C002F010C062
:100E900006F003C010F007C003F010C007F004C054
:100EA00010F008C004F010C008F0000E106E0F50D3
:100EB0000EC009F00A6A095E000E0A5A0ABE6AEFFD
:100EC00007F00A5009E11A0E095CD8A06AEF07F092
:100ED0006CEF07F0A3EF07F00150021003100410AD
:100EE000D8A475EF07F078EF07F0010E79EF07F05F
:100EF000000E106E000E016E000E026E000E036EEC
:100F0000000E046E0EC00FF0ACEF07F010A08BEFD8
:100F100007F08DEF07F093EF07F0D890103001093C
:100F2000106E95EF07F0D890103201A09AEF07F0FD
:100F30009CEF07F09DEF07F0108E0434043203326B
:100F4000023201320F2A0E500F5CD8A0AAEF07F030
:100F5000ACEF07F086EF07F00DBCB1EF07F0B3EF91
:100F600007F0F3EF07F00F50D8A4B9EF07F0BBEF8D
:100F700007F0C5EF07F0000E016E000E026E000EC6
:100F8000036E000E046E14EF09F0055001260650A2
:100F90000222075003220850042204A0D2EF07F0D7
:100FA000D4EF07F080EF08F010A0D9EF07F0DBEFE7
:100FB00007F0E1EF07F0D89010300109106EE3EF71
:100FC00007F0D890103201A0E8EF07F0EAEF07F041
:100FD000EBEF07F0108E0434043203320232013298
:100FE0000F2A80EF08F00550015C065002580750A8
:100FF00003580450800A096E0850800A0958D8B076
:1010000004EF08F006EF08F031EF08F00150055C3E
:10101000096E025006580A6E035007580B6E0450B2
:1010200008580C6EFF0E0924016EFF0E0A20026E96
:10103000FF0E0B20036EFF0E0C20046E800E0D1AA7
:10104000106C1050D8A427EF08F029EF08F039EF02
:1010500008F0010E0126000E02220322042239EFBD
:1010600008F00550015E0650025A0750035A085016
:10107000045A0150021003100410D8A442EF08F0E3
:1010800044EF08F079EF08F01050D8A44AEF08F0C8
:101090004CEF08F079EF08F0000E016E000E026EC2
:1010A000000E036E000E046E14EF09F0D8900136A6
:1010B00002360336043610AE60EF08F062EF08F037
:1010C00063EF08F0018010A068EF08F06AEF08F005
:1010D0006EEF08F0D880103670EF08F0D890103618
:1010E0000F50D8B476EF08F078EF08F079EF08F0F9
:1010F0000F0603AE7EEF08F080EF08F056EF08F021
:10110000000E0E6E10AE87EF08F089EF08F0A1EF29
:1011100008F010C009F07F0E0916D8B492EF08F05D
:1011200094EF08F098EF08F0010E0E6EA1EF08F0B2
:1011300001A09DEF08F09FEF08F0A1EF08F094EFF9
:1011400008F00E50D8B4A7EF08F0A9EF08F0D4EFDC
:1011500008F0010E0126000E02220322042204A040
:10116000B4EF08F0B6EF08F0D4EF08F001C009F0D2
:1011700002C00AF003C00BF004C00CF00C340C32B7
:101180000B320A32093209C001F00AC002F00BC06A
:1011900003F00CC004F00F28D8B4D1EF08F0D3EF5F
:1011A00008F0D4EF08F00F2A0F28D8B4DAEF08F0CF
:1011B000DCEF08F0E4EF08F00F50D8A4E2EF08F0FD
:1011C000E4EF08F0F6EF08F0000E016E000E026E7C
:1011D000000E036E000E046E0F50D8A4F2EF08F05C
:1011E000F4EF08F0F6EF08F0000E0D6E0FA0FBEF25
:1011F00008F0FDEF08F000EF09F0038E01EF09F0B1
:10120000039ED8900F30046E0DAE09EF09F00BEF7E
:1012100009F00CEF09F0048E01C001F002C002F0E9
:1012200003C003F004C004F0120002BE23EF09F073
:10123000025007E1080E015CD8B021EF09F023EF5E
:1012400009F04DEF09F003500410D8B42AEF09F06B
:101250002CEF09F03CEF09F001C005F0010E066E1D
:10126000052A35EF09F0D8900636052E33EF09F040
:10127000065092123BEF0AF001C005F0010E066E17
:10128000052A45EF09F0D8900636052E43EF09F000
:101290000650FF0A92163BEF0AF002BE5BEF09F020
:1012A000025007E1100E015CD8B059EF09F05BEF76
:1012B00009F089EF09F003500410D8B462EF09F087
:1012C00064EF09F076EF09F001C005F0F80E05268D
:1012D000010E066E052A6FEF09F0D8900636052E2E
:1012E0006DEF09F0065093123BEF0AF001C005F0D4
:1012F000F80E0526010E066E052A81EF09F0D8903A
:101300000636052E7FEF09F00650FF0A93163BEFD5
:101310000AF002BE97EF09F0025007E1180E015CD7
:10132000D8B095EF09F097EF09F0C5EF09F0035039
:101330000410D8B49EEF09F0A0EF09F0B2EF09F065
:1013400001C005F0F00E0526010E066E052AABEF72
:1013500009F0D8900636052EA9EF09F00650941230
:101360003BEF0AF001C005F0F00E0526010E066EF7
:10137000052ABDEF09F0D8900636052EBBEF09F01F
:101380000650FF0A94163BEF0AF002BED3EF09F0B5
:10139000025007E1200E015CD8B0D1EF09F0D3EF85
:1013A00009F001EF0AF003500410D8B4DAEF09F0A5
:1013B000DCEF09F0EEEF09F001C005F0E80E0526BC
:1013C000010E066E052AE7EF09F0D8900636052EC5
:1013D000E5EF09F0065095123BEF0AF001C005F069
:1013E000E80E0526010E066E052AF9EF09F0D890E1
:1013F0000636052EF7EF09F00650FF0A95163BEF6B
:101400000AF002BE0FEF0AF0025007E1280E015C5D
:10141000D8B00DEF0AF00FEF0AF03BEF0AF00350DF
:101420000410D8B416EF0AF018EF0AF02AEF0AF009
:1014300001C005F0E00E0526010E066E052A23EF19
:101440000AF0D8900636052E21EF0AF006509612C3
:101450003BEF0AF001C005F0E00E0526010E066E16
:10146000052A35EF0AF0D8900636052E33EF0AF03C
:101470000650FF0A9616120002BE4AEF0AF002500A
:1014800007E1080E015CD8B048EF0AF04AEF0AF015
:1014900074EF0AF003500410D8B451EF0AF053EF80
:1014A0000AF063EF0AF001C005F0010E066E052A8E
:1014B0005CEF0AF0D8900636052E5AEF0AF0065077
:1014C000801262EF0BF001C005F0010E066E052AD6
:1014D0006CEF0AF0D8900636052E6AEF0AF0065037
:1014E000FF0A801662EF0BF002BE82EF0AF0025094
:1014F00007E1100E015CD8B080EF0AF082EF0AF02D
:10150000B0EF0AF0F80E0126FF0E0222035004107D
:10151000D8B48DEF0AF08FEF0AF09FEF0AF001C008
:1015200005F0010E066E052A98EF0AF0D8900636EF
:10153000052E96EF0AF00650811262EF0BF001C003
:1015400005F0010E066E052AA8EF0AF0D8900636BF
:10155000052EA6EF0AF00650FF0A811662EF0BF087
:1015600002BEBEEF0AF0025007E1180E015CD8B0CF
:10157000BCEF0AF0BEEF0AF0ECEF0AF0F00E012625
:10158000FF0E022203500410D8B4C9EF0AF0CBEFCB
:101590000AF0DBEF0AF001C005F0010E066E052A25
:1015A000D4EF0AF0D8900636052ED2EF0AF0065096
:1015B000821262EF0BF001C005F0010E066E052AE3
:1015C000E4EF0AF0D8900636052EE2EF0AF0065056
:1015D000FF0A821662EF0BF002BEFAEF0AF0025029
:1015E00007E1200E015CD8B0F8EF0AF0FAEF0AF03C
:1015F00028EF0BF0E80E0126FF0E02220350041024
:10160000D8B405EF0BF007EF0BF017EF0BF001C0AC
:1016100005F0010E066E052A10EF0BF0D890063685
:10162000052E0EEF0BF00650831262EF0BF001C097
:1016300005F0010E066E052A20EF0BF0D890063655
:10164000052E1EEF0BF00650FF0A831662EF0BF01B
:1016500002BE36EF0BF0025007E1280E015CD8B055
:1016600034EF0BF036EF0BF062EF0BF0E00E0126DB
:10167000FF0E022203500410D8B441EF0BF043EFE9
:101680000BF053EF0BF001C005F0010E066E052ABA
:101690004CEF0BF0D8900636052E4AEF0BF00650B3
:1016A000841262EF0BF001C005F0010E066E052AF0
:1016B0005CEF0BF0D8900636052E5AEF0BF0065073
:1016C000FF0A8416120083CF06F00F0E9512000E4B
:1016D0000A6EF80E93160AC001F0010E026E012A7E
:1016E00074EF0BF0D8900236012E72EF0BF002501F
:1016F0009312070E81120AC001F0010E026E012A38
:1017000084EF0BF0D8900236012E82EF0BF00250DE
:10171000FF0A8116000E086E000E076E074A082A9F
:1017200008BE9CEF0BF0085009E10A0E075CD8A038
:101730009CEF0BF09EEF0BF08EEF0BF0000E096E9E
:1017400009C001F0010E026E012AA9EF0BF0D8903A
:101750000236012EA7EF0BF0025083140009D8A423
:10176000B4EF0BF0B6EF0BF0CEEF0BF00A50040D18
:10177000F3500924016E010E026E000E036E012A61
:10178000C5EF0BF0D89002360336012EC2EF0BF0F6
:101790000250211203502212E8EF0BF00A50040D00
:1017A000F3500924016E010E026E000E036E012A31
:1017B000DDEF0BF0D89002360336012EDAEF0BF096
:1017C000021C046E031C056E0450211605502216DF
:1017D000092A030E0964EFEF0BF0F1EF0BF0A0EF15
:1017E0000BF00A2A020E0A64F8EF0BF0FAEF0BF086
:1017F00069EF0BF021501F1807E122502018D8A4E0
:1018000004EF0CF006EF0CF009EF0CF02C060FEFD4
:101810000CF00A0E2C6E21C01FF022C020F02C50BC
:10182000D8A415EF0CF017EF0CF01BEF0CF01FC055
:1018300023F020C024F006C083FF000E956E120036
:10184000000E956E000E026E020E016E000E046E0A
:10185000000E036E3CEC0AF0000E026E030E016EE9
:10186000000E046E000E036E3CEC0AF0000E026ED9
:10187000040E016E000E046E000E036E3CEC0AF0C6
:10188000000E026E050E016E000E046E000E036E59
:101890003CEC0AF0000E836EAAEF0CF0010E282437
:1018A000F66EF76A060EF7220800F5CF83FF000EEA
:1018B000026E020E016E000E046E010E036E3CEC11
:1018C0000AF0010E296EC7EF0CF0010E2724F66E08
:1018D000F76A060EF7220800F5CF83FF000E026EAE
:1018E000030E016E000E046E010E036E3CEC0AF056
:1018F000020E296EC7EF0CF0010E2624F66EF76A71
:10190000060EF7220800F5CF83FF000E026E040ECC
:10191000016E000E046E010E036E3CEC0AF0030E25
:10192000296EC7EF0CF0010E2524F66EF76A060E3D
:10193000F7220800F5CF83FF000E026E050E016E40
:10194000000E046E010E036E3CEC0AF0000E296ED0
:10195000C7EF0CF02950076E086A0850000AD8B487
:10196000B4EF0CF0A6EF0CF00750000AD8B44EEF1D
:101970000CF0010AD8B465EF0CF0030AD8B47CEF80
:101980000CF0010AD8B493EF0CF0A6EF0CF01200A3
:10199000000E0114096E000E02140A6E800E03146C
:1019A0000B6E7F0E04140C6E09500A100B100C10F5
:1019B000D8A4DDEF0CF0DFEF0CF0E7EF0CF0000E39
:1019C000016E000E026E000E036E000E046E000E1D
:1019D0000514096E000E06140A6E800E07140B6EB5
:1019E0007F0E08140C6E09500A100B100C10D8A4AE
:1019F000FCEF0CF0FEEF0CF006EF0DF0000E056EA4
:101A0000000E066E000E076E000E086E04AE0BEFA1
:101A10000DF00DEF0DF016EF0DF0016C021ED8B0B9
:101A2000022A031ED8B0032A800E045608AE1BEF0C
:101A30000DF01DEF0DF026EF0DF0056C061ED8B071
:101A4000062A071ED8B0072A800E0856000E011A73
:101A5000000E021A000E031A800E041A000E051A58
:101A6000000E061A000E071A800E081A0550015CB7
:101A7000065002580750035808500458D8B043EF96
:101A80000DF045EF0DF048EF0DF0D89049EF0DF057
:101A9000D8801200086E83CF07F0000E956E000EFE
:101AA000026E220E016E000E046E000E036E3CEC00
:101AB0000AF008C083FF000E026E210E016E000EB8
:101AC000046E010E036E3CEC0AF0000E026E210E55
:101AD000016E000E046E000E036E3CEC0AF007C0AF
:101AE00083FF020E0818D8B478EF0DF07AEF0DF0EE
:101AF00082EF0DF00804D8A480EF0DF082EF0DF016
:101B000086EF0DF0B2EC0EF088EF0DF0C0EC0EF0A9
:101B10001200000E026E220E016E000E046E000E08
:101B2000036E15EC09F0000E026E210E016E000E20
:101B3000046E000E036E15EC09F0000E956EB2EC0B
:101B40000EF0B2EC0EF0B2EC0EF0B2EC0EF0B2EC25
:101B50000EF0380E4AEC0DF0B2EC0EF0B2EC0EF0D6
:101B6000380E4AEC0DF0B2EC0EF0380E4AEC0DF0E7
:101B7000380E4AEC0DF0060E4AEC0DF00C0E4AEC55
:101B80000DF0010E4AEC0DF01200000E066E000E74
:101B9000056E03500410D8B4D0EF0DF0D2EF0DF065
:101BA000FAEF0DF0010E076EDAEF0DF0D890033664
:101BB0000436072A04AEDFEF0DF0E1EF0DF0D6EFAB
:101BC0000DF0D890053606360350015C04500258DB
:101BD000D8A0EDEF0DF0EFEF0DF0F4EF0DF00350A6
:101BE000015E0450025A0580D89004320332072E59
:101BF000E1EF0DF005C001F006C002F012000A503E
:101C00000B10D8B406EF0EF008EF0EF02CEF0EF02C
:101C1000010E0C6E10EF0EF0D8900A360B360C2A1F
:101C20000BAE15EF0EF017EF0EF00CEF0EF00A50A2
:101C3000085C0B500958D8A020EF0EF022EF0EF0F0
:101C400026EF0EF00A50085E0B50095AD8900B325E
:101C50000A320C2E17EF0EF008C008F009C009F088
:101C600012000E6E0D50D8A438EF0EF03AEF0EF0C1
:101C70003CEF0EF00EC028F00D04D8A442EF0EF099
:101C800044EF0EF046EF0EF00EC027F0020E0D18D6
:101C9000D8A44DEF0EF04FEF0EF051EF0EF00EC046
:101CA00026F0030E0D18D8A458EF0EF05AEF0EF0E0
:101CB0005CEF0EF00EC025F01200000E026E020E58
:101CC000016E000E046E000E036E15EC09F0000E9E
:101CD000026E030E016E000E046E000E036E15EC14
:101CE00009F0000E026E040E016E000E046E000E6E
:101CF000036E15EC09F0000E026E050E016E000E6B
:101D0000046E000E036E15EC09F0000E956E1200C5
:101D1000076E83CF08F0000E956E000E026E220E45
:101D2000016E000E046E010E036E3CEC0AF007C05B
:101D300083FF000E026E210E016E000E046E010E76
:101D4000036E3CEC0AF0000E026E210E016E000ED6
:101D5000046E000E036E3CEC0AF008C083FFC0EC7A
:101D60000EF01200000E026EC0EC0EF0022A310ED0
:101D70000264BDEF0EF0BFEF0EF0B4EF0EF01200F4
:101D8000000E016E012A180E0164C9EF0EF0CBEFB0
:101D90000EF0C2EF0EF0120000EE1FF00E0EEE6A13
:101DA000E806FDE1000EF86E000109EF03F023C024
:101DB00001F024C002F01200070E93160F0E9512C8
:021DC00012000F
:020000040020DA
:08000000FFFFFFFFFFFFFFFF00
:020000040030CA
:0E000000FF027100FF8380FF0FC00FE00F4072
:00000001FF
